{
  "contractName": "Incidents",
  "abi": [
    {
      "inputs": [
        {
          "name": "_incident",
          "type": "string"
        }
      ],
      "payable": false,
      "stateMutability": "nonpayable",
      "type": "constructor"
    },
    {
      "constant": false,
      "inputs": [
        {
          "name": "content",
          "type": "string"
        }
      ],
      "name": "addProgress",
      "outputs": [
        {
          "name": "",
          "type": "uint256"
        }
      ],
      "payable": false,
      "stateMutability": "nonpayable",
      "type": "function"
    },
    {
      "constant": false,
      "inputs": [
        {
          "name": "content",
          "type": "string"
        }
      ],
      "name": "addComment",
      "outputs": [
        {
          "name": "",
          "type": "uint256"
        }
      ],
      "payable": false,
      "stateMutability": "nonpayable",
      "type": "function"
    },
    {
      "constant": false,
      "inputs": [
        {
          "name": "commentId",
          "type": "uint256"
        },
        {
          "name": "content",
          "type": "string"
        }
      ],
      "name": "addReply",
      "outputs": [
        {
          "name": "",
          "type": "string"
        }
      ],
      "payable": false,
      "stateMutability": "nonpayable",
      "type": "function"
    },
    {
      "constant": false,
      "inputs": [
        {
          "name": "commentId",
          "type": "uint256"
        }
      ],
      "name": "badge",
      "outputs": [
        {
          "name": "",
          "type": "bool"
        }
      ],
      "payable": false,
      "stateMutability": "nonpayable",
      "type": "function"
    },
    {
      "constant": false,
      "inputs": [
        {
          "name": "commentId",
          "type": "uint256"
        }
      ],
      "name": "like",
      "outputs": [
        {
          "name": "",
          "type": "uint256"
        }
      ],
      "payable": false,
      "stateMutability": "nonpayable",
      "type": "function"
    },
    {
      "constant": false,
      "inputs": [
        {
          "name": "commentId",
          "type": "uint256"
        }
      ],
      "name": "unlike",
      "outputs": [
        {
          "name": "",
          "type": "uint256"
        }
      ],
      "payable": false,
      "stateMutability": "nonpayable",
      "type": "function"
    }
  ],
  "bytecode": "0x608060405260018055600160025534801561001957600080fd5b50604051610867380380610867833981018060405281019080805182019291905050508060009080519060200190610052929190610059565b50506100fe565b828054600181600116156101000203166002900490600052602060002090601f016020900481019282601f1061009a57805160ff19168380011785556100c8565b828001600101855582156100c8579182015b828111156100c75782518255916020019190600101906100ac565b5b5090506100d591906100d9565b5090565b6100fb91905b808211156100f75760008160009055506001016100df565b5090565b90565b61075a8061010d6000396000f300608060405260043610610078576000357c0100000000000000000000000000000000000000000000000000000000900463ffffffff168063602220571461007d57806374d21ae014610169578063843b4386146101aa578063c0f6faed14610227578063c12d51ad1461026c578063e82935da146102e9575b600080fd5b34801561008957600080fd5b506100ee60048036038101908080359060200190929190803590602001908201803590602001908080601f016020809104026020016040519081016040528093929190818152602001838380828437820191505050505050919291929050505061032a565b6040518080602001828103825283818151815260200191508051906020019080838360005b8381101561012e578082015181840152602081019050610113565b50505050905090810190601f16801561015b5780820380516001836020036101000a031916815260200191505b509250505060405180910390f35b34801561017557600080fd5b506101946004803603810190808035906020019092919050505061040e565b6040518082815260200191505060405180910390f35b3480156101b657600080fd5b50610211600480360381019080803590602001908201803590602001908080601f0160208091040260200160405190810160405280939291908181526020018383808284378201915050505050509192919290505050610453565b6040518082815260200191505060405180910390f35b34801561023357600080fd5b5061025260048036038101908080359060200190929190505050610521565b604051808215151515815260200191505060405180910390f35b34801561027857600080fd5b506102d3600480360381019080803590602001908201803590602001908080601f016020809104026020016040519081016040528093929190818152602001838380828437820191505050505050919291929050505061057d565b6040518082815260200191505060405180910390f35b3480156102f557600080fd5b50610314600480360381019080803590602001909291905050506105c4565b6040518082815260200191505060405180910390f35b606081600360008581526020019081526020016000206003019080519060200190610356929190610609565b50600360008481526020019081526020016000206003018054600181600116156101000203166002900480601f0160208091040260200160405190810160405280929190818152602001828054600181600116156101000203166002900480156104015780601f106103d657610100808354040283529160200191610401565b820191906000526020600020905b8154815290600101906020018083116103e457829003601f168201915b5050505050905092915050565b60006001600360008481526020019081526020016000206000016000828254039250508190555060036000838152602001908152602001600020600001549050919050565b60006080604051908101604052806000815260200160001515815260200183815260200160206040519081016040528060008152508152506003600060015481526020019081526020016000206000820151816000015560208201518160010160006101000a81548160ff02191690831515021790555060408201518160020190805190602001906104e6929190610689565b506060820151816003019080519060200190610503929190610689565b50905050600180600082825401925050819055506001549050919050565b600060016003600084815260200190815260200160002060010160006101000a81548160ff0219169083151502179055506003600083815260200190815260200160002060010160009054906101000a900460ff169050919050565b60008160046000600254815260200190815260200160002090805190602001906105a8929190610609565b5060016002600082825401925050819055506002549050919050565b60006001600360008481526020019081526020016000206000016000828254019250508190555060036000838152602001908152602001600020600001549050919050565b828054600181600116156101000203166002900490600052602060002090601f016020900481019282601f1061064a57805160ff1916838001178555610678565b82800160010185558215610678579182015b8281111561067757825182559160200191906001019061065c565b5b5090506106859190610709565b5090565b828054600181600116156101000203166002900490600052602060002090601f016020900481019282601f106106ca57805160ff19168380011785556106f8565b828001600101855582156106f8579182015b828111156106f75782518255916020019190600101906106dc565b5b5090506107059190610709565b5090565b61072b91905b8082111561072757600081600090555060010161070f565b5090565b905600a165627a7a72305820fce40842e19edbb676089f26743ce30738210c5271850fadec1766a703af22f80029",
  "source": "pragma solidity ^0.4.24;\n\ncontract Incidents {\n\n    struct Comment {\n        uint totalLike;\n        bool badge;\n        string content; \n        string reply;\n    }\n\n\tstring incident;\n    uint commentNum = 1;\n    uint progressNum = 1;\n    mapping (uint => Comment) comments;\n    mapping (uint => string) progresses;\n\n\tconstructor(string _incident) public {\n\t\tincident = _incident;\n \t}\n\n    function addProgress(string content) public returns (uint) {\n        progresses[progressNum] = content;\n        progressNum += 1;\n        return progressNum;\n    }\n\n    function addComment(string content) public returns (uint) {\n        comments[commentNum] = Comment(0, false, content, '');\n        commentNum += 1;\n        return commentNum;\n    }\n\n    function addReply(uint commentId, string content) public returns (string) {\n        comments[commentId].reply = content;\n        return comments[commentId].reply;\n    }\n\n    function badge(uint commentId) public returns (bool) {\n        comments[commentId].badge = true;\n        return comments[commentId].badge;\n    }\n\n\tfunction like(uint commentId) public returns (uint) {\n        comments[commentId].totalLike += 1;\n\t\treturn comments[commentId].totalLike;\n\t}\n\n\tfunction unlike(uint commentId) public returns (uint) {\n        comments[commentId].totalLike -= 1;\n\t\treturn comments[commentId].totalLike;\n\t}\n}\n",
  "sourcePath": "/Users/hyein/Desktop/sc4sc/backend/contracts/Incidents.sol",
  "compiler": {
    "name": "solc",
    "version": "0.4.24+commit.e67f0147.Emscripten.clang"
  },
  "schemaVersion": "3.0.1",
  "updatedAt": "2019-01-24T12:47:06.589Z",
  "devdoc": {
    "methods": {}
  },
  "userdoc": {
    "methods": {}
  }
}