{
  "contractName": "Incidents",
  "abi": [
    {
      "inputs": [
        {
          "name": "_incident",
          "type": "string"
        }
      ],
      "payable": false,
      "stateMutability": "nonpayable",
      "type": "constructor"
    },
    {
      "constant": false,
      "inputs": [
        {
          "name": "content",
          "type": "string"
        }
      ],
      "name": "addProgress",
      "outputs": [
        {
          "name": "",
          "type": "uint256"
        }
      ],
      "payable": false,
      "stateMutability": "nonpayable",
      "type": "function"
    },
    {
      "constant": false,
      "inputs": [
        {
          "name": "content",
          "type": "string"
        }
      ],
      "name": "addComment",
      "outputs": [
        {
          "name": "",
          "type": "uint256"
        }
      ],
      "payable": false,
      "stateMutability": "nonpayable",
      "type": "function"
    },
    {
      "constant": false,
      "inputs": [
        {
          "name": "commentId",
          "type": "uint256"
        },
        {
          "name": "content",
          "type": "string"
        }
      ],
      "name": "addReply",
      "outputs": [
        {
          "name": "",
          "type": "string"
        }
      ],
      "payable": false,
      "stateMutability": "nonpayable",
      "type": "function"
    },
    {
      "constant": false,
      "inputs": [
        {
          "name": "commentId",
          "type": "uint256"
        }
      ],
      "name": "badge",
      "outputs": [
        {
          "name": "",
          "type": "bool"
        }
      ],
      "payable": false,
      "stateMutability": "nonpayable",
      "type": "function"
    },
    {
      "constant": false,
      "inputs": [
        {
          "name": "commentId",
          "type": "uint256"
        }
      ],
      "name": "like",
      "outputs": [
        {
          "name": "",
          "type": "uint256"
        }
      ],
      "payable": false,
      "stateMutability": "nonpayable",
      "type": "function"
    },
    {
      "constant": false,
      "inputs": [
        {
          "name": "commentId",
          "type": "uint256"
        }
      ],
      "name": "unlike",
      "outputs": [
        {
          "name": "",
          "type": "uint256"
        }
      ],
      "payable": false,
      "stateMutability": "nonpayable",
      "type": "function"
    }
  ],
  "bytecode": "0x60806040526000600155600060025534801561001a57600080fd5b506040516108c83803806108c883398101806040528101908080518201929190505050806000908051906020019061005392919061005a565b50506100ff565b828054600181600116156101000203166002900490600052602060002090601f016020900481019282601f1061009b57805160ff19168380011785556100c9565b828001600101855582156100c9579182015b828111156100c85782518255916020019190600101906100ad565b5b5090506100d691906100da565b5090565b6100fc91905b808211156100f85760008160009055506001016100e0565b5090565b90565b6107ba8061010e6000396000f300608060405260043610610078576000357c0100000000000000000000000000000000000000000000000000000000900463ffffffff168063602220571461007d57806374d21ae014610169578063843b4386146101aa578063c0f6faed14610227578063c12d51ad1461026c578063e82935da146102e9575b600080fd5b34801561008957600080fd5b506100ee60048036038101908080359060200190929190803590602001908201803590602001908080601f016020809104026020016040519081016040528093929190818152602001838380828437820191505050505050919291929050505061032a565b6040518080602001828103825283818151815260200191508051906020019080838360005b8381101561012e578082015181840152602081019050610113565b50505050905090810190601f16801561015b5780820380516001836020036101000a031916815260200191505b509250505060405180910390f35b34801561017557600080fd5b506101946004803603810190808035906020019092919050505061040e565b6040518082815260200191505060405180910390f35b3480156101b657600080fd5b50610211600480360381019080803590602001908201803590602001908080601f0160208091040260200160405190810160405280939291908181526020018383808284378201915050505050509192919290505050610459565b6040518082815260200191505060405180910390f35b34801561023357600080fd5b5061025260048036038101908080359060200190929190505050610530565b604051808215151515815260200191505060405180910390f35b34801561027857600080fd5b506102d3600480360381019080803590602001908201803590602001908080601f016020809104026020016040519081016040528093929190818152602001838380828437820191505050505050919291929050505061058c565b6040518082815260200191505060405180910390f35b3480156102f557600080fd5b50610314600480360381019080803590602001909291905050506105dc565b6040518082815260200191505060405180910390f35b606081600360008581526020019081526020016000206003019080519060200190610356929190610669565b50600360008481526020019081526020016000206003018054600181600116156101000203166002900480601f0160208091040260200160405190810160405280929190818152602001828054600181600116156101000203166002900480156104015780601f106103d657610100808354040283529160200191610401565b820191906000526020600020905b8154815290600101906020018083116103e457829003601f168201915b5050505050905092915050565b600061043a6001600360008581526020019081526020016000206000015461062790919063ffffffff16565b5060036000838152602001908152602001600020600001549050919050565b6000806001549050608060405190810160405280600081526020016000151581526020018481526020016020604051908101604052806000815250815250600360008381526020019081526020016000206000820151816000015560208201518160010160006101000a81548160ff02191690831515021790555060408201518160020190805190602001906104f09291906106e9565b50606082015181600301908051906020019061050d9291906106e9565b509050506105266001805461064890919063ffffffff16565b5080915050919050565b600060016003600084815260200190815260200160002060010160006101000a81548160ff0219169083151502179055506003600083815260200190815260200160002060010160009054906101000a900460ff169050919050565b6000806002549050826004600083815260200190815260200160002090805190602001906105bb929190610669565b506105d2600160025461064890919063ffffffff16565b5080915050919050565b60006106086001600360008581526020019081526020016000206000015461064890919063ffffffff16565b5060036000838152602001908152602001600020600001549050919050565b60008083831115151561063957600080fd5b82840390508091505092915050565b600080828401905083811015151561065f57600080fd5b8091505092915050565b828054600181600116156101000203166002900490600052602060002090601f016020900481019282601f106106aa57805160ff19168380011785556106d8565b828001600101855582156106d8579182015b828111156106d75782518255916020019190600101906106bc565b5b5090506106e59190610769565b5090565b828054600181600116156101000203166002900490600052602060002090601f016020900481019282601f1061072a57805160ff1916838001178555610758565b82800160010185558215610758579182015b8281111561075757825182559160200191906001019061073c565b5b5090506107659190610769565b5090565b61078b91905b8082111561078757600081600090555060010161076f565b5090565b905600a165627a7a723058201b96ce7815aea02c4d38590fc7884dfe08a25439de4eaaa710196c0f81b48f8a0029",
  "source": "pragma solidity ^0.4.24;\n\nimport 'openzeppelin-solidity/contracts/math/SafeMath.sol';\n\ncontract Incidents {\n    using SafeMath for uint;\n\n    struct Comment {\n        uint totalLike;\n        bool badge;\n        string content;\n        string reply;\n    }\n\n\tstring incident;\n    uint commentNum = 0;\n    uint progressNum = 0;\n    mapping (uint => Comment) comments;\n    mapping (uint => string) progresses;\n\n\tconstructor(string _incident) public {\n\t\tincident = _incident;\n \t}\n\n    function addProgress(string content) public returns (uint) {\n        uint progressId = progressNum;\n        progresses[progressId] = content;\n        progressNum.add(1);\n        return progressId;\n    }\n\n    function addComment(string content) public returns (uint) {\n        uint commentId = commentNum;\n        comments[commentId] = Comment(0, false, content, '');\n        commentNum.add(1);\n        return commentId;\n    }\n\n    function addReply(uint commentId, string content) public returns (string) {\n        comments[commentId].reply = content;\n        return comments[commentId].reply;\n    }\n\n    function badge(uint commentId) public returns (bool) {\n        comments[commentId].badge = true;\n        return comments[commentId].badge;\n    }\n\n\tfunction like(uint commentId) public returns (uint) {\n        comments[commentId].totalLike.add(1);\n\t\treturn comments[commentId].totalLike;\n\t}\n\n\tfunction unlike(uint commentId) public returns (uint) {\n        comments[commentId].totalLike.sub(1);\n\t\treturn comments[commentId].totalLike;\n\t}\n}\n",
  "sourcePath": "/Users/hyein/Desktop/sc4sc/contracts/Incidents.sol",
  "compiler": {
    "name": "solc",
    "version": "0.4.24+commit.e67f0147.Emscripten.clang"
  },
  "schemaVersion": "3.0.1",
  "updatedAt": "2019-01-18T07:38:40.735Z",
  "devdoc": {
    "methods": {}
  },
  "userdoc": {
    "methods": {}
  }
}