{
  "contractName": "Incidents",
  "abi": [
    {
      "inputs": [
        {
          "name": "_incident",
          "type": "string"
        }
      ],
      "payable": false,
      "stateMutability": "nonpayable",
      "type": "constructor"
    },
    {
      "constant": false,
      "inputs": [
        {
          "name": "content",
          "type": "string"
        }
      ],
      "name": "addProgress",
      "outputs": [
        {
          "name": "",
          "type": "uint256"
        }
      ],
      "payable": false,
      "stateMutability": "nonpayable",
      "type": "function"
    },
    {
      "constant": false,
      "inputs": [
        {
          "name": "content",
          "type": "string"
        }
      ],
      "name": "addComment",
      "outputs": [
        {
          "name": "",
          "type": "uint256"
        }
      ],
      "payable": false,
      "stateMutability": "nonpayable",
      "type": "function"
    },
    {
      "constant": false,
      "inputs": [
        {
          "name": "newState",
          "type": "string"
        }
      ],
      "name": "changeState",
      "outputs": [
        {
          "name": "",
          "type": "string"
        }
      ],
      "payable": false,
      "stateMutability": "nonpayable",
      "type": "function"
    },
    {
      "constant": false,
      "inputs": [
        {
          "name": "commentIndex",
          "type": "uint256"
        },
        {
          "name": "content",
          "type": "string"
        }
      ],
      "name": "addReply",
      "outputs": [
        {
          "name": "",
          "type": "string"
        }
      ],
      "payable": false,
      "stateMutability": "nonpayable",
      "type": "function"
    },
    {
      "constant": false,
      "inputs": [
        {
          "name": "commentIndex",
          "type": "uint256"
        }
      ],
      "name": "like",
      "outputs": [
        {
          "name": "",
          "type": "uint256"
        }
      ],
      "payable": false,
      "stateMutability": "nonpayable",
      "type": "function"
    },
    {
      "constant": false,
      "inputs": [
        {
          "name": "commentIndex",
          "type": "uint256"
        }
      ],
      "name": "unlike",
      "outputs": [
        {
          "name": "",
          "type": "uint256"
        }
      ],
      "payable": false,
      "stateMutability": "nonpayable",
      "type": "function"
    }
  ],
  "bytecode": "0x60806040526001600255600160035534801561001a57600080fd5b506040516109b13803806109b18339810180604052810190808051820192919050505080600090805190602001906100539291906100a6565b506040805190810160405280600981526020017fed9995ec9db8eca49100000000000000000000000000000000000000000000008152506001908051906020019061009f9291906100a6565b505061014b565b828054600181600116156101000203166002900490600052602060002090601f016020900481019282601f106100e757805160ff1916838001178555610115565b82800160010185558215610115579182015b828111156101145782518255916020019190600101906100f9565b5b5090506101229190610126565b5090565b61014891905b8082111561014457600081600090555060010161012c565b5090565b90565b6108578061015a6000396000f300608060405260043610610078576000357c0100000000000000000000000000000000000000000000000000000000900463ffffffff1680633b430faa1461007d578063602220571461015f57806374d21ae01461024b578063843b43861461028c578063c12d51ad14610309578063e82935da14610386575b600080fd5b34801561008957600080fd5b506100e4600480360381019080803590602001908201803590602001908080601f01602080910402602001604051908101604052809392919081815260200183838082843782019150505050505091929192905050506103c7565b6040518080602001828103825283818151815260200191508051906020019080838360005b83811015610124578082015181840152602081019050610109565b50505050905090810190601f1680156101515780820380516001836020036101000a031916815260200191505b509250505060405180910390f35b34801561016b57600080fd5b506101d060048036038101908080359060200190929190803590602001908201803590602001908080601f0160208091040260200160405190810160405280939291908181526020018383808284378201915050505050509192919290505050610482565b6040518080602001828103825283818151815260200191508051906020019080838360005b838110156102105780820151818401526020810190506101f5565b50505050905090810190601f16801561023d5780820380516001836020036101000a031916815260200191505b509250505060405180910390f35b34801561025757600080fd5b5061027660048036038101908080359060200190929190505050610566565b6040518082815260200191505060405180910390f35b34801561029857600080fd5b506102f3600480360381019080803590602001908201803590602001908080601f01602080910402602001604051908101604052809392919081815260200183838082843782019150505050505091929192905050506105ab565b6040518082815260200191505060405180910390f35b34801561031557600080fd5b50610370600480360381019080803590602001908201803590602001908080601f016020809104026020016040519081016040528093929190818152602001838380828437820191505050505050919291929050505061067a565b6040518082815260200191505060405180910390f35b34801561039257600080fd5b506103b1600480360381019080803590602001909291905050506106c1565b6040518082815260200191505060405180910390f35b606081600190805190602001906103df929190610706565b5060018054600181600116156101000203166002900480601f0160208091040260200160405190810160405280929190818152602001828054600181600116156101000203166002900480156104765780601f1061044b57610100808354040283529160200191610476565b820191906000526020600020905b81548152906001019060200180831161045957829003601f168201915b50505050509050919050565b6060816004600085815260200190815260200160002060030190805190602001906104ae929190610706565b50600460008481526020019081526020016000206003018054600181600116156101000203166002900480601f0160208091040260200160405190810160405280929190818152602001828054600181600116156101000203166002900480156105595780601f1061052e57610100808354040283529160200191610559565b820191906000526020600020905b81548152906001019060200180831161053c57829003601f168201915b5050505050905092915050565b60006001600460008481526020019081526020016000206000016000828254039250508190555060046000838152602001908152602001600020600001549050919050565b60006080604051908101604052806000815260200160001515815260200183815260200160206040519081016040528060008152508152506004600060025481526020019081526020016000206000820151816000015560208201518160010160006101000a81548160ff021916908315150217905550604082015181600201908051906020019061063e929190610786565b50606082015181600301908051906020019061065b929190610786565b5090505060016002600082825401925050819055506002549050919050565b60008160056000600354815260200190815260200160002090805190602001906106a5929190610706565b5060016003600082825401925050819055506003549050919050565b60006001600460008481526020019081526020016000206000016000828254019250508190555060046000838152602001908152602001600020600001549050919050565b828054600181600116156101000203166002900490600052602060002090601f016020900481019282601f1061074757805160ff1916838001178555610775565b82800160010185558215610775579182015b82811115610774578251825591602001919060010190610759565b5b5090506107829190610806565b5090565b828054600181600116156101000203166002900490600052602060002090601f016020900481019282601f106107c757805160ff19168380011785556107f5565b828001600101855582156107f5579182015b828111156107f45782518255916020019190600101906107d9565b5b5090506108029190610806565b5090565b61082891905b8082111561082457600081600090555060010161080c565b5090565b905600a165627a7a72305820af0aa59a70ceb71ecc9c03b12173f92f5e7a0359fb74e285c86f27d6ce5837320029",
  "source": "pragma solidity ^0.4.24;\n\ncontract Incidents {\n\n    struct Comment {\n        uint totalLike;\n        bool badge;\n        string content; \n        string reply;\n    }\n\n\tstring incident;\n    string state;\n    uint commentNum = 1;\n    uint progressNum = 1;\n    mapping (uint => Comment) comments;\n    mapping (uint => string) progresses;\n\n\tconstructor(string _incident) public {\n\t\tincident = _incident;\n        state = \"확인중\";\n \t}\n\n    function addProgress(string content) public returns (uint) {\n        progresses[progressNum] = content;\n        progressNum += 1;\n        return progressNum;\n    }\n\n    function addComment(string content) public returns (uint) {\n        comments[commentNum] = Comment(0, false, content, '');\n        commentNum += 1;\n        return commentNum;\n    }\n\n    function changeState(string newState) public returns (string) {\n        state = newState;\n        return state;\n    }\n\n    function addReply(uint commentIndex, string content) public returns (string) {\n        comments[commentIndex].reply = content;\n        return comments[commentIndex].reply;\n    }\n\n\tfunction like(uint commentIndex) public returns (uint) {\n        comments[commentIndex].totalLike += 1;\n\t\treturn comments[commentIndex].totalLike;\n\t}\n\n\tfunction unlike(uint commentIndex) public returns (uint) {\n        comments[commentIndex].totalLike -= 1;\n\t\treturn comments[commentIndex].totalLike;\n\t}\n}\n",
  "sourcePath": "/Users/hyein/Desktop/sc4sc/backend/contracts/Incidents.sol",
  "compiler": {
    "name": "solc",
    "version": "0.4.24+commit.e67f0147.Emscripten.clang"
  },
  "schemaVersion": "3.0.1",
  "updatedAt": "2019-01-30T06:27:38.480Z",
  "devdoc": {
    "methods": {}
  },
  "userdoc": {
    "methods": {}
  }
}